{
  "_format": "hh-sol-artifact-1",
  "contractName": "Market",
  "sourceName": "contracts/MarketPlace.sol",
  "abi": [
    {
      "inputs": [],
      "stateMutability": "nonpayable",
      "type": "constructor"
    },
    {
      "inputs": [
        {
          "internalType": "address",
          "name": "_address",
          "type": "address"
        }
      ],
      "name": "addToBlackList",
      "outputs": [],
      "stateMutability": "nonpayable",
      "type": "function"
    },
    {
      "inputs": [
        {
          "internalType": "uint256",
          "name": "_orderId",
          "type": "uint256"
        }
      ],
      "name": "buy",
      "outputs": [],
      "stateMutability": "payable",
      "type": "function"
    },
    {
      "inputs": [
        {
          "internalType": "uint256",
          "name": "orderId",
          "type": "uint256"
        }
      ],
      "name": "buyOrders",
      "outputs": [
        {
          "internalType": "uint256",
          "name": "desiredPrice",
          "type": "uint256"
        },
        {
          "internalType": "uint256",
          "name": "orderId",
          "type": "uint256"
        },
        {
          "internalType": "enum Market.Status",
          "name": "status",
          "type": "uint8"
        },
        {
          "internalType": "uint256",
          "name": "tokenId",
          "type": "uint256"
        },
        {
          "internalType": "address",
          "name": "orderOwner",
          "type": "address"
        },
        {
          "internalType": "uint256",
          "name": "sellOrderId",
          "type": "uint256"
        }
      ],
      "stateMutability": "view",
      "type": "function"
    },
    {
      "inputs": [
        {
          "internalType": "uint256",
          "name": "_orderId",
          "type": "uint256"
        }
      ],
      "name": "cancelSell",
      "outputs": [],
      "stateMutability": "nonpayable",
      "type": "function"
    },
    {
      "inputs": [
        {
          "internalType": "address",
          "name": "_address",
          "type": "address"
        }
      ],
      "name": "checkNFT",
      "outputs": [
        {
          "internalType": "bool",
          "name": "isAllowed",
          "type": "bool"
        }
      ],
      "stateMutability": "view",
      "type": "function"
    },
    {
      "inputs": [
        {
          "internalType": "uint256",
          "name": "_orderId",
          "type": "uint256"
        },
        {
          "internalType": "uint256",
          "name": "_desiredPrice",
          "type": "uint256"
        }
      ],
      "name": "createBuyOrder",
      "outputs": [],
      "stateMutability": "payable",
      "type": "function"
    },
    {
      "inputs": [
        {
          "internalType": "address",
          "name": "_address",
          "type": "address"
        },
        {
          "internalType": "uint256",
          "name": "_tokenId",
          "type": "uint256"
        },
        {
          "internalType": "uint256",
          "name": "_desiredPrice",
          "type": "uint256"
        }
      ],
      "name": "createSellOrder",
      "outputs": [],
      "stateMutability": "nonpayable",
      "type": "function"
    },
    {
      "inputs": [
        {
          "internalType": "uint256",
          "name": "_orderId",
          "type": "uint256"
        }
      ],
      "name": "fulfill",
      "outputs": [],
      "stateMutability": "nonpayable",
      "type": "function"
    },
    {
      "inputs": [],
      "name": "getAllBuyOrders",
      "outputs": [
        {
          "components": [
            {
              "internalType": "uint256",
              "name": "desiredPrice",
              "type": "uint256"
            },
            {
              "internalType": "uint256",
              "name": "orderId",
              "type": "uint256"
            },
            {
              "internalType": "enum Market.Status",
              "name": "status",
              "type": "uint8"
            },
            {
              "internalType": "uint256",
              "name": "tokenId",
              "type": "uint256"
            },
            {
              "internalType": "address",
              "name": "orderOwner",
              "type": "address"
            },
            {
              "internalType": "uint256",
              "name": "sellOrderId",
              "type": "uint256"
            }
          ],
          "internalType": "struct Market.BuyOrder[]",
          "name": "",
          "type": "tuple[]"
        }
      ],
      "stateMutability": "view",
      "type": "function"
    },
    {
      "inputs": [],
      "name": "getAllSellOrders",
      "outputs": [
        {
          "components": [
            {
              "internalType": "uint256",
              "name": "desiredPrice",
              "type": "uint256"
            },
            {
              "internalType": "uint256",
              "name": "orderId",
              "type": "uint256"
            },
            {
              "internalType": "enum Market.Status",
              "name": "status",
              "type": "uint8"
            },
            {
              "internalType": "uint256",
              "name": "tokenId",
              "type": "uint256"
            },
            {
              "internalType": "address",
              "name": "tokenAddress",
              "type": "address"
            },
            {
              "internalType": "address",
              "name": "orderOwner",
              "type": "address"
            }
          ],
          "internalType": "struct Market.Order[]",
          "name": "",
          "type": "tuple[]"
        }
      ],
      "stateMutability": "view",
      "type": "function"
    },
    {
      "inputs": [],
      "name": "nextBuyOrderId",
      "outputs": [
        {
          "internalType": "uint256",
          "name": "",
          "type": "uint256"
        }
      ],
      "stateMutability": "view",
      "type": "function"
    },
    {
      "inputs": [],
      "name": "nextOrderId",
      "outputs": [
        {
          "internalType": "uint256",
          "name": "",
          "type": "uint256"
        }
      ],
      "stateMutability": "view",
      "type": "function"
    },
    {
      "inputs": [
        {
          "internalType": "uint256",
          "name": "orderId",
          "type": "uint256"
        }
      ],
      "name": "sellOrders",
      "outputs": [
        {
          "internalType": "uint256",
          "name": "desiredPrice",
          "type": "uint256"
        },
        {
          "internalType": "uint256",
          "name": "orderId",
          "type": "uint256"
        },
        {
          "internalType": "enum Market.Status",
          "name": "status",
          "type": "uint8"
        },
        {
          "internalType": "uint256",
          "name": "tokenId",
          "type": "uint256"
        },
        {
          "internalType": "address",
          "name": "tokenAddress",
          "type": "address"
        },
        {
          "internalType": "address",
          "name": "orderOwner",
          "type": "address"
        }
      ],
      "stateMutability": "view",
      "type": "function"
    },
    {
      "stateMutability": "payable",
      "type": "receive"
    }
  ],
  "bytecode": "0x60806040526000600555600060065534801561001a57600080fd5b50600080546001600160a01b031916331790556115e58061003c6000396000f3fe6080604052600436106100b65760003560e01c8063417c73a71161006f578063417c73a7146101d45780634a8393f3146101f4578063730412e814610268578063753b88071461028a578063ba8c2ace146102aa578063c9b57f4f146102da578063d96a094a146102f057600080fd5b806304e9e17a146100c257806307c9cd45146100e45780632a58b330146101045780632cb4f4b71461012d5780632e98613e1461014057806335cea2881461016257600080fd5b366100bd57005b600080fd5b3480156100ce57600080fd5b506100e26100dd366004611242565b610303565b005b3480156100f057600080fd5b506100e26100ff366004611277565b61054d565b34801561011057600080fd5b5061011a60055481565b6040519081526020015b60405180910390f35b6100e261013b366004611290565b6105d6565b34801561014c57600080fd5b506101556107cc565b60405161012491906112ea565b34801561016e57600080fd5b506101c261017d366004611277565b60046020819052600091825260409091208054600182015460028301546003840154948401546005909401549294919360ff909116926001600160a01b039091169086565b60405161012496959493929190611374565b3480156101e057600080fd5b506100e26101ef3660046113b5565b6108f9565b34801561020057600080fd5b5061025661020f366004611277565b600260208190526000918252604090912080546001820154928201546003830154600484015460059094015492949360ff9092169290916001600160a01b03908116911686565b604051610124969594939291906113d9565b34801561027457600080fd5b5061027d610964565b604051610124919061141b565b34801561029657600080fd5b506100e26102a5366004611277565b610a8c565b3480156102b657600080fd5b506102ca6102c53660046113b5565b610c1d565b6040519015158152602001610124565b3480156102e657600080fd5b5061011a60065481565b6100e26102fe366004611277565b610c3c565b61030c83610c1d565b61034f5760405162461bcd60e51b815260206004820152600f60248201526e139195081b9bdd08185b1b1bddd959608a1b60448201526064015b60405180910390fd5b6040516331a9108f60e11b815260048101839052839033906001600160a01b03831690636352211e90602401602060405180830381865afa158015610398573d6000803e3d6000fd5b505050506040513d601f19601f820116820180604052508101906103bc919061149e565b6001600160a01b03161461040b5760405162461bcd60e51b8152602060048201526016602482015275165bdd48191bdb89dd081bdddb881d1a1a5cc813919560521b6044820152606401610346565b6040516323b872dd60e01b81526001600160a01b038216906323b872dd9061043b903390309088906004016114bb565b600060405180830381600087803b15801561045557600080fd5b505af1158015610469573d6000803e3d6000fd5b50506040805160c08101825285815260055460208083018281526002848601818152606086018c90526001600160a01b038d1660808701523360a0870152600094855292819052949092208351815591516001808401919091559051828501805494975092955093919260ff19169184908111156104e9576104e96112b2565b02179055506060820151600382015560808201516004820180546001600160a01b03199081166001600160a01b039384161790915560a090930151600592830180549094169116179091558054906000610542836114df565b919050555050505050565b600081815260026020819052604090912081015460ff1681811115610574576105746112b2565b146105915760405162461bcd60e51b815260040161034690611506565b6000818152600260205260409020600501546001600160a01b031633146105ca5760405162461bcd60e51b81526004016103469061152f565b6105d381610df0565b50565b600082815260026020819052604090912081015460ff16818111156105fd576105fd6112b2565b1461061a5760405162461bcd60e51b815260040161034690611506565b8034101561063a5760405162461bcd60e51b81526004016103469061155a565b6040805160c08101825282815260065460208083018281526002848601818152600089815282855287812060030154606088015233608088015260a087018a905294855260049093529490922083518155915160018084019190915590518285018054949593949193909260ff19909216919084908111156106be576106be6112b2565b021790555060608201516003828101919091556080830151600480840180546001600160a01b0319166001600160a01b039093169290921790915560a0909301516005909201919091556000848152602091825260408082206006805484529484529082208154600181810184559284529390922082549390940290930191825580830154828401556002808201548184018054939560ff90921693909260ff1990911691908490811115610775576107756112b2565b02179055506003828101549082015560048083015490820180546001600160a01b0319166001600160a01b03909216919091179055600591820154910155600680549060006107c3836114df565b91905055505050565b6060600060065467ffffffffffffffff8111156107eb576107eb611583565b60405190808252806020026020018201604052801561082457816020015b610811611196565b8152602001906001900390816108095790505b5090506000805b6006548110156108f157600081815260046020908152604091829020825160c08101845281548152600182015492810192909252600280820154929391929184019160ff1690811115610880576108806112b2565b6002811115610891576108916112b2565b81526003820154602082015260048201546001600160a01b0316604082015260059091015460609091015283518490849081106108d0576108d0611599565b602002602001018190525081806108e6906114df565b92505060010161082b565b509092915050565b6000546001600160a01b0316331461093d5760405162461bcd60e51b81526020600482015260076024820152664e6f742068696d60c81b6044820152606401610346565b6001600160a01b03166000908152600160208190526040909120805460ff19169091179055565b6060600060055467ffffffffffffffff81111561098357610983611583565b6040519080825280602002602001820160405280156109bc57816020015b6109a96111e6565b8152602001906001900390816109a15790505b5090506000805b6005548110156108f157600081815260026020818152604092839020835160c0810185528154815260018201549281019290925280830154919390929084019160ff1690811115610a1657610a166112b2565b6002811115610a2757610a276112b2565b81526003820154602082015260048201546001600160a01b0390811660408301526005909201549091166060909101528351849084908110610a6b57610a6b611599565b60200260200101819052508180610a81906114df565b9250506001016109c3565b600081815260046020526040902060029081015460ff1681811115610ab357610ab36112b2565b14610af45760405162461bcd60e51b815260206004820152601160248201527027379039bab1b410313abc9037b93232b960791b6044820152606401610346565b600081815260046020818152604080842060059081015485526002909252909220908101549101546001600160a01b0391821691163314610b475760405162461bcd60e51b81526004016103469061152f565b600082815260046020526040808220549051339282156108fc02929190818181858888f19350505050158015610b81573d6000803e3d6000fd5b506000828152600460208190526040918290208082015460039091015492516323b872dd60e01b81526001600160a01b03808616946323b872dd94610bcb943094931692016114bb565b600060405180830381600087803b158015610be557600080fd5b505af1158015610bf9573d6000803e3d6000fd5b505050600083815260046020526040902060050154610c19915083610f76565b5050565b6001600160a01b031660009081526001602052604090205460ff161590565b600081815260026020819052604090912081015460ff1681811115610c6357610c636112b2565b14610c805760405162461bcd60e51b815260040161034690611506565b600081815260026020526040902054341015610cae5760405162461bcd60e51b81526004016103469061155a565b6000818152600260205260409081902060048082015460039092015492516331a9108f60e11b8152908101929092526001600160a01b0316908190636352211e90602401602060405180830381865afa158015610d0f573d6000803e3d6000fd5b505050506040513d601f19601f82011682018060405250810190610d33919061149e565b6000838152600260205260408082205490516001600160a01b03939093169281156108fc0292818181858888f19350505050158015610d76573d6000803e3d6000fd5b50600082815260026020526040908190206003015490516323b872dd60e01b81526001600160a01b038316916323b872dd91610db99130913391906004016114bb565b600060405180830381600087803b158015610dd357600080fd5b505af1158015610de7573d6000803e3d6000fd5b50505050610c19825b6000818152600360205260408120549003610e2c5760008181526002602081905260409091200180546001919060ff191682805b021790555050565b60005b600082815260036020526040902054811015610f52576000828152600360205260409020805482908110610e6557610e65611599565b906000526020600020906006020160040160009054906101000a90046001600160a01b03166001600160a01b03166108fc600360008581526020019081526020016000208381548110610eba57610eba611599565b600091825260208220600690910201546040518115909302929091818181858888f19350505050158015610ef2573d6000803e3d6000fd5b506000828152600360205260408120805483908110610f1357610f13611599565b906000526020600020906006020160020160006101000a81548160ff02191690836002811115610f4557610f456112b2565b0217905550600101610e2f565b5060008181526002602081905260409091200180546001919060ff19168280610e24565b6000828152600360205260408120549003610fb35760008281526002602081905260409091200180546001919060ff191682805b02179055505050565b60005b600083815260036020526040902054811015611172576000838152600360205260409020805482908110610fec57610fec611599565b90600052602060002090600602016001015482036110645760008381526003602052604090208054600191908390811061102857611028611599565b906000526020600020906006020160020160006101000a81548160ff0219169083600281111561105a5761105a6112b2565b021790555061116a565b600083815260036020526040902080548290811061108457611084611599565b906000526020600020906006020160040160009054906101000a90046001600160a01b03166001600160a01b03166108fc6003600086815260200190815260200160002083815481106110d9576110d9611599565b600091825260208220600690910201546040518115909302929091818181858888f19350505050158015611111573d6000803e3d6000fd5b50600083815260036020526040812080548390811061113257611132611599565b906000526020600020906006020160020160006101000a81548160ff02191690836002811115611164576111646112b2565b02179055505b600101610fb6565b5060008281526002602081905260409091200180546001919060ff19168280610faa565b6040518060c001604052806000815260200160008152602001600060028111156111c2576111c26112b2565b81526020016000815260200160006001600160a01b03168152602001600081525090565b6040518060c00160405280600081526020016000815260200160006002811115611212576112126112b2565b81526000602082018190526040820181905260609091015290565b6001600160a01b03811681146105d357600080fd5b60008060006060848603121561125757600080fd5b83356112628161122d565b95602085013595506040909401359392505050565b60006020828403121561128957600080fd5b5035919050565b600080604083850312156112a357600080fd5b50508035926020909101359150565b634e487b7160e01b600052602160045260246000fd5b600381106112e657634e487b7160e01b600052602160045260246000fd5b9052565b602080825282518282018190526000919060409081850190868401855b828110156113675781518051855286810151878601528581015161132d878701826112c8565b50606081810151908601526080808201516001600160a01b03169086015260a0908101519085015260c09093019290850190600101611307565b5091979650505050505050565b8681526020810186905260c0810161138f60408301876112c8565b60608201949094526001600160a01b0392909216608083015260a0909101529392505050565b6000602082840312156113c757600080fd5b81356113d28161122d565b9392505050565b8681526020810186905260c081016113f460408301876112c8565b60608201949094526001600160a01b039283166080820152911660a0909101529392505050565b602080825282518282018190526000919060409081850190868401855b828110156113675781518051855286810151878601528581015161145e878701826112c8565b50606081810151908601526080808201516001600160a01b039081169187019190915260a091820151169085015260c09093019290850190600101611438565b6000602082840312156114b057600080fd5b81516113d28161122d565b6001600160a01b039384168152919092166020820152604081019190915260600190565b6000600182016114ff57634e487b7160e01b600052601160045260246000fd5b5060010190565b6020808252600f908201526e4e6f207375636820696e2073616c6560881b604082015260600190565b6020808252601190820152702cb7ba9030b932903737ba1037bbb732b960791b604082015260600190565b6020808252600f908201526e5768657265206973206d6f6e65793f60881b604082015260600190565b634e487b7160e01b600052604160045260246000fd5b634e487b7160e01b600052603260045260246000fdfea26469706673582212208bada78d83eec1feacd5a228d2f084a84a10f1b6498421643a3181b6b8c0a47c64736f6c63430008180033",
  "linkReferences": {},
  "deployedLinkReferences": {}
}