{
  "_format": "hh-sol-artifact-1",
  "contractName": "Market",
  "sourceName": "contracts/MarketPlace.sol",
  "abi": [
    {
      "inputs": [],
      "stateMutability": "nonpayable",
      "type": "constructor"
    },
    {
      "anonymous": false,
      "inputs": [
        {
          "indexed": false,
          "internalType": "uint256",
          "name": "_orderId",
          "type": "uint256"
        }
      ],
      "name": "BuyOrderFulfill",
      "type": "event"
    },
    {
      "anonymous": false,
      "inputs": [
        {
          "indexed": false,
          "internalType": "uint256",
          "name": "_orderId",
          "type": "uint256"
        }
      ],
      "name": "CancelBuy",
      "type": "event"
    },
    {
      "anonymous": false,
      "inputs": [
        {
          "indexed": false,
          "internalType": "uint256",
          "name": "_orderId",
          "type": "uint256"
        }
      ],
      "name": "CancelSell",
      "type": "event"
    },
    {
      "anonymous": false,
      "inputs": [
        {
          "indexed": false,
          "internalType": "uint256",
          "name": "_orderId",
          "type": "uint256"
        },
        {
          "indexed": false,
          "internalType": "uint256",
          "name": "_desiredPrice",
          "type": "uint256"
        },
        {
          "indexed": false,
          "internalType": "address",
          "name": "who",
          "type": "address"
        }
      ],
      "name": "CreateBuyOrder",
      "type": "event"
    },
    {
      "anonymous": false,
      "inputs": [
        {
          "indexed": false,
          "internalType": "address",
          "name": "_address",
          "type": "address"
        },
        {
          "indexed": false,
          "internalType": "uint256",
          "name": "_tokenId",
          "type": "uint256"
        },
        {
          "indexed": false,
          "internalType": "uint256",
          "name": "_desiredPrice",
          "type": "uint256"
        },
        {
          "indexed": false,
          "internalType": "address",
          "name": "_who",
          "type": "address"
        },
        {
          "indexed": false,
          "internalType": "uint256",
          "name": "_orderId",
          "type": "uint256"
        }
      ],
      "name": "CreateSellOrder",
      "type": "event"
    },
    {
      "anonymous": false,
      "inputs": [
        {
          "indexed": false,
          "internalType": "uint256",
          "name": "_orderId",
          "type": "uint256"
        },
        {
          "indexed": false,
          "internalType": "address",
          "name": "_who",
          "type": "address"
        }
      ],
      "name": "DirectBuy",
      "type": "event"
    },
    {
      "inputs": [
        {
          "internalType": "address",
          "name": "_address",
          "type": "address"
        }
      ],
      "name": "addToBlackList",
      "outputs": [],
      "stateMutability": "nonpayable",
      "type": "function"
    },
    {
      "inputs": [
        {
          "internalType": "address",
          "name": "",
          "type": "address"
        }
      ],
      "name": "balances",
      "outputs": [
        {
          "internalType": "uint256",
          "name": "",
          "type": "uint256"
        }
      ],
      "stateMutability": "view",
      "type": "function"
    },
    {
      "inputs": [
        {
          "internalType": "uint256",
          "name": "_orderId",
          "type": "uint256"
        }
      ],
      "name": "buy",
      "outputs": [],
      "stateMutability": "payable",
      "type": "function"
    },
    {
      "inputs": [
        {
          "internalType": "uint256",
          "name": "orderId",
          "type": "uint256"
        }
      ],
      "name": "buyOrders",
      "outputs": [
        {
          "internalType": "uint256",
          "name": "desiredPrice",
          "type": "uint256"
        },
        {
          "internalType": "uint256",
          "name": "orderId",
          "type": "uint256"
        },
        {
          "internalType": "enum Market.Status",
          "name": "status",
          "type": "uint8"
        },
        {
          "internalType": "uint256",
          "name": "tokenId",
          "type": "uint256"
        },
        {
          "internalType": "address",
          "name": "orderOwner",
          "type": "address"
        },
        {
          "internalType": "uint256",
          "name": "sellOrderId",
          "type": "uint256"
        }
      ],
      "stateMutability": "view",
      "type": "function"
    },
    {
      "inputs": [
        {
          "internalType": "uint256",
          "name": "sellOrderId",
          "type": "uint256"
        },
        {
          "internalType": "uint256",
          "name": "",
          "type": "uint256"
        }
      ],
      "name": "buyOrdersBinded",
      "outputs": [
        {
          "internalType": "uint256",
          "name": "desiredPrice",
          "type": "uint256"
        },
        {
          "internalType": "uint256",
          "name": "orderId",
          "type": "uint256"
        },
        {
          "internalType": "enum Market.Status",
          "name": "status",
          "type": "uint8"
        },
        {
          "internalType": "uint256",
          "name": "tokenId",
          "type": "uint256"
        },
        {
          "internalType": "address",
          "name": "orderOwner",
          "type": "address"
        },
        {
          "internalType": "uint256",
          "name": "sellOrderId",
          "type": "uint256"
        }
      ],
      "stateMutability": "view",
      "type": "function"
    },
    {
      "inputs": [
        {
          "internalType": "uint256",
          "name": "_orderId",
          "type": "uint256"
        }
      ],
      "name": "cancelBuy",
      "outputs": [],
      "stateMutability": "nonpayable",
      "type": "function"
    },
    {
      "inputs": [
        {
          "internalType": "uint256",
          "name": "_orderId",
          "type": "uint256"
        }
      ],
      "name": "cancelSell",
      "outputs": [],
      "stateMutability": "nonpayable",
      "type": "function"
    },
    {
      "inputs": [
        {
          "internalType": "address",
          "name": "_address",
          "type": "address"
        }
      ],
      "name": "checkNFT",
      "outputs": [
        {
          "internalType": "bool",
          "name": "isAllowed",
          "type": "bool"
        }
      ],
      "stateMutability": "view",
      "type": "function"
    },
    {
      "inputs": [
        {
          "internalType": "uint256",
          "name": "_orderId",
          "type": "uint256"
        },
        {
          "internalType": "uint256",
          "name": "_desiredPrice",
          "type": "uint256"
        }
      ],
      "name": "createBuyOrder",
      "outputs": [],
      "stateMutability": "nonpayable",
      "type": "function"
    },
    {
      "inputs": [
        {
          "internalType": "address",
          "name": "_address",
          "type": "address"
        },
        {
          "internalType": "uint256",
          "name": "_tokenId",
          "type": "uint256"
        },
        {
          "internalType": "uint256",
          "name": "_desiredPrice",
          "type": "uint256"
        }
      ],
      "name": "createSellOrder",
      "outputs": [],
      "stateMutability": "nonpayable",
      "type": "function"
    },
    {
      "inputs": [],
      "name": "deposit",
      "outputs": [],
      "stateMutability": "payable",
      "type": "function"
    },
    {
      "inputs": [
        {
          "internalType": "uint256",
          "name": "_orderId",
          "type": "uint256"
        }
      ],
      "name": "fulfill",
      "outputs": [],
      "stateMutability": "nonpayable",
      "type": "function"
    },
    {
      "inputs": [],
      "name": "getAllBuyOrders",
      "outputs": [
        {
          "components": [
            {
              "internalType": "uint256",
              "name": "desiredPrice",
              "type": "uint256"
            },
            {
              "internalType": "uint256",
              "name": "orderId",
              "type": "uint256"
            },
            {
              "internalType": "enum Market.Status",
              "name": "status",
              "type": "uint8"
            },
            {
              "internalType": "uint256",
              "name": "tokenId",
              "type": "uint256"
            },
            {
              "internalType": "address",
              "name": "orderOwner",
              "type": "address"
            },
            {
              "internalType": "uint256",
              "name": "sellOrderId",
              "type": "uint256"
            }
          ],
          "internalType": "struct Market.BuyOrder[]",
          "name": "",
          "type": "tuple[]"
        }
      ],
      "stateMutability": "view",
      "type": "function"
    },
    {
      "inputs": [],
      "name": "getAllSellOrders",
      "outputs": [
        {
          "components": [
            {
              "internalType": "uint256",
              "name": "desiredPrice",
              "type": "uint256"
            },
            {
              "internalType": "uint256",
              "name": "orderId",
              "type": "uint256"
            },
            {
              "internalType": "enum Market.Status",
              "name": "status",
              "type": "uint8"
            },
            {
              "internalType": "uint256",
              "name": "tokenId",
              "type": "uint256"
            },
            {
              "internalType": "address",
              "name": "tokenAddress",
              "type": "address"
            },
            {
              "internalType": "address",
              "name": "orderOwner",
              "type": "address"
            }
          ],
          "internalType": "struct Market.Order[]",
          "name": "",
          "type": "tuple[]"
        }
      ],
      "stateMutability": "view",
      "type": "function"
    },
    {
      "inputs": [],
      "name": "nextBuyOrderId",
      "outputs": [
        {
          "internalType": "uint256",
          "name": "",
          "type": "uint256"
        }
      ],
      "stateMutability": "view",
      "type": "function"
    },
    {
      "inputs": [],
      "name": "nextOrderId",
      "outputs": [
        {
          "internalType": "uint256",
          "name": "",
          "type": "uint256"
        }
      ],
      "stateMutability": "view",
      "type": "function"
    },
    {
      "inputs": [
        {
          "internalType": "uint256",
          "name": "orderId",
          "type": "uint256"
        }
      ],
      "name": "sellOrders",
      "outputs": [
        {
          "internalType": "uint256",
          "name": "desiredPrice",
          "type": "uint256"
        },
        {
          "internalType": "uint256",
          "name": "orderId",
          "type": "uint256"
        },
        {
          "internalType": "enum Market.Status",
          "name": "status",
          "type": "uint8"
        },
        {
          "internalType": "uint256",
          "name": "tokenId",
          "type": "uint256"
        },
        {
          "internalType": "address",
          "name": "tokenAddress",
          "type": "address"
        },
        {
          "internalType": "address",
          "name": "orderOwner",
          "type": "address"
        }
      ],
      "stateMutability": "view",
      "type": "function"
    },
    {
      "inputs": [
        {
          "internalType": "uint256",
          "name": "amount",
          "type": "uint256"
        }
      ],
      "name": "withdraw",
      "outputs": [],
      "stateMutability": "nonpayable",
      "type": "function"
    },
    {
      "stateMutability": "payable",
      "type": "receive"
    }
  ],
  "bytecode": "0x60806040526000600655600060075534801561001a57600080fd5b50600080546001600160a01b031916331790556119728061003c6000396000f3fe6080604052600436106100ed5760003560e01c8063417c73a711610085578063417c73a7146102855780634a8393f3146102a5578063730412e814610319578063753b88071461033b578063a5c62fad1461035b578063ba8c2ace1461037b578063c9b57f4f146103ab578063d0e30db0146103c1578063d96a094a146103c957600080fd5b806304e9e17a146100f957806307c9cd451461011b57806319df99a81461013b57806327e235e31461015b5780632a58b3301461019b5780632cb4f4b7146101b15780632e1a7d4d146101d15780632e98613e146101f157806335cea2881461021357600080fd5b366100f457005b600080fd5b34801561010557600080fd5b5061011961011436600461159b565b6103dc565b005b34801561012757600080fd5b506101196101363660046115d0565b6106e2565b34801561014757600080fd5b506101196101563660046115d0565b6107be565b34801561016757600080fd5b506101886101763660046115e9565b60056020526000908152604090205481565b6040519081526020015b60405180910390f35b3480156101a757600080fd5b5061018860065481565b3480156101bd57600080fd5b506101196101cc36600461160d565b6108a7565b3480156101dd57600080fd5b506101196101ec3660046115d0565b610ae8565b3480156101fd57600080fd5b50610206610b91565b6040516101929190611667565b34801561021f57600080fd5b5061027361022e3660046115d0565b60046020819052600091825260409091208054600182015460028301546003840154948401546005909401549294919360ff909116926001600160a01b039091169086565b604051610192969594939291906116f1565b34801561029157600080fd5b506101196102a03660046115e9565b610cbe565b3480156102b157600080fd5b506103076102c03660046115d0565b600260208190526000918252604090912080546001820154928201546003830154600484015460059094015492949360ff9092169290916001600160a01b03908116911686565b60405161019296959493929190611732565b34801561032557600080fd5b5061032e610d29565b6040516101929190611774565b34801561034757600080fd5b506101196103563660046115d0565b610e51565b34801561036757600080fd5b5061027361037636600461160d565b611191565b34801561038757600080fd5b5061039b6103963660046115e9565b6111f4565b6040519015158152602001610192565b3480156103b757600080fd5b5061018860075481565b610119611213565b6101196103d73660046115d0565b611239565b6103e5836111f4565b6104285760405162461bcd60e51b815260206004820152600f60248201526e139195081b9bdd08185b1b1bddd959608a1b60448201526064015b60405180910390fd5b6040516331a9108f60e11b815260048101839052839033906001600160a01b03831690636352211e90602401602060405180830381865afa158015610471573d6000803e3d6000fd5b505050506040513d601f19601f8201168201806040525081019061049591906117f7565b6001600160a01b0316146104e45760405162461bcd60e51b8152602060048201526016602482015275165bdd48191bdb89dd081bdddb881d1a1a5cc813919560521b604482015260640161041f565b60405163020604bf60e21b81526004810184905230906001600160a01b0383169063081812fc90602401602060405180830381865afa15801561052b573d6000803e3d6000fd5b505050506040513d601f19601f8201168201806040525081019061054f91906117f7565b6001600160a01b0316146105945760405162461bcd60e51b815260206004820152600c60248201526b139bdd08185c1c1c9bdd995960a21b604482015260640161041f565b6040805160c081018252838152600654602082015290810160028152602001848152602001856001600160a01b03168152602001336001600160a01b0316815250600260006006548152602001908152602001600020600082015181600001556020820151816001015560408201518160020160006101000a81548160ff021916908360028111156106285761062861162f565b021790555060608281015160038301556080808401516004840180546001600160a01b03199081166001600160a01b039384161790915560a095860151600590950180549091169482169490941790935560065460408051948a16855260208501899052840187905233928401929092528201527ff9e1356943853369e9cfd17d84a2969028d75d1944702f885619d88d70fa841c910160405180910390a1600680549060006106d78361182a565b919050555050505050565b600081815260026020819052604090912081015460ff16818111156107095761070961162f565b146107265760405162461bcd60e51b815260040161041f90611843565b6000818152600260205260409020600501546001600160a01b0316331461075f5760405162461bcd60e51b815260040161041f9061186c565b6000818152600260208190526040822081015460ff16908111156107855761078561162f565b50506040518181527f87df48382ad11b84926580278f9ad32c3c1391b3abe3e28308695fab47e5c0fd906020015b60405180910390a150565b600081815260046020526040902060029081015460ff16818111156107e5576107e561162f565b146108235760405162461bcd60e51b815260206004820152600e60248201526d4e6f207375636820696e2062757960901b604482015260640161041f565b600081815260046020819052604090912001546001600160a01b0316331461085d5760405162461bcd60e51b815260040161041f9061186c565b600081815260046020908152604091829020600201805460ff1916905590518281527f845a7df11ee330ad24abe076e7c44e9273aeb9eec0cfb45ccea14e52e2a742d091016107b3565b600082815260026020819052604090912081015460ff16818111156108ce576108ce61162f565b146108eb5760405162461bcd60e51b815260040161041f90611843565b3360009081526005602052604090205481111561091a5760405162461bcd60e51b815260040161041f90611897565b6040805160c08101825282815260075460208083018281526002848601818152600089815282855287812060030154606088015233608088015260a087018a905294855260049093529490922083518155915160018084019190915590518285018054949593949193909260ff199092169190849081111561099e5761099e61162f565b021790555060608201516003828101919091556080830151600480840180546001600160a01b0319166001600160a01b039093169290921790915560a0909301516005909201919091556000848152602091825260408082206007548352938352812083546001818101865594835292909120815460069093020191825580830154828401556002808201548184018054939560ff90921693909260ff1990911691908490811115610a5257610a5261162f565b02179055506003828101549082015560048083015490820180546001600160a01b0319166001600160a01b0390921691909117905560059182015491015560078054906000610aa08361182a565b90915550506040805183815260208101839052338183015290517fe4041f00f364e2a62b16c19fe28f151d0e2bb65b1740058910fad87ea6b4bf3e9181900360600190a15050565b33600090815260056020526040902054811115610b3c5760405162461bcd60e51b81526020600482015260126024820152712130b630b731b29034b99039b6b0b63632b960711b604482015260640161041f565b3360009081526005602052604081208054839290610b5b9084906118c0565b9091555050604051339082156108fc029083906000818181858888f19350505050158015610b8d573d6000803e3d6000fd5b5050565b6060600060075467ffffffffffffffff811115610bb057610bb06118d9565b604051908082528060200260200182016040528015610be957816020015b610bd66114ec565b815260200190600190039081610bce5790505b5090506000805b600754811015610cb657600081815260046020908152604091829020825160c08101845281548152600182015492810192909252600280820154929391929184019160ff1690811115610c4557610c4561162f565b6002811115610c5657610c5661162f565b81526003820154602082015260048201546001600160a01b031660408201526005909101546060909101528351849084908110610c9557610c956118ef565b60200260200101819052508180610cab9061182a565b925050600101610bf0565b509092915050565b6000546001600160a01b03163314610d025760405162461bcd60e51b81526020600482015260076024820152664e6f742068696d60c81b604482015260640161041f565b6001600160a01b03166000908152600160208190526040909120805460ff19169091179055565b6060600060065467ffffffffffffffff811115610d4857610d486118d9565b604051908082528060200260200182016040528015610d8157816020015b610d6e61153c565b815260200190600190039081610d665790505b5090506000805b600654811015610cb657600081815260026020818152604092839020835160c0810185528154815260018201549281019290925280830154919390929084019160ff1690811115610ddb57610ddb61162f565b6002811115610dec57610dec61162f565b81526003820154602082015260048201546001600160a01b0390811660408301526005909201549091166060909101528351849084908110610e3057610e306118ef565b60200260200101819052508180610e469061182a565b925050600101610d88565b6000818152600460209081526040808320815160c08101835281548152600182015493810193909352600280820154919284019160ff1690811115610e9857610e9861162f565b6002811115610ea957610ea961162f565b81526003820154602082015260048201546001600160a01b031660408201526005909101546060909101529050600281604001516002811115610eee57610eee61162f565b14610f2f5760405162461bcd60e51b815260206004820152601160248201527027379039bab1b410313abc9037b93232b960791b604482015260640161041f565b805160808201516001600160a01b03166000908152600560205260409020541015610f8c5760405162461bcd60e51b815260206004820152600d60248201526c213abcb2b91034b9903137b6b560991b604482015260640161041f565b60a081015160009081526002602052604090819020600490810154606084015192516331a9108f60e11b8152918201929092526001600160a01b039091169033908290636352211e90602401602060405180830381865afa158015610ff5573d6000803e3d6000fd5b505050506040513d601f19601f8201168201806040525081019061101991906117f7565b6001600160a01b03161461103f5760405162461bcd60e51b815260040161041f9061186c565b8151604051339180156108fc02916000818181858888f1935050505015801561106c573d6000803e3d6000fd5b50815160808301516001600160a01b03166000908152600560205260408120805490919061109b9084906118c0565b9091555050608082015160608301516040516323b872dd60e01b81526001600160a01b038416926323b872dd926110d89233929190600401611905565b600060405180830381600087803b1580156110f257600080fd5b505af1158015611106573d6000803e3d6000fd5b50505060008481526004602090815260408083206002808201805460ff19166001908117909155600590920154855292839052922081015491925060ff909116908111156111565761115661162f565b50506040518381527fb2f92ca95462cc0fb22134fffdd48c9d286835c91d5e4276dd7714a7e1296621906020015b60405180910390a1505050565b600360205281600052604060002081815481106111ad57600080fd5b600091825260209091206006909102018054600182015460028301546003840154600485015460059095015493965091945060ff169290916001600160a01b039091169086565b6001600160a01b031660009081526001602052604090205460ff161590565b3360009081526005602052604081208054349290611232908490611929565b9091555050565b6000818152600260208181526040808420815160c0810183528154815260018201549381019390935280840154929390929184019160ff16908111156112815761128161162f565b60028111156112925761129261162f565b81526003820154602082015260048201546001600160a01b03908116604083015260059092015490911660609091015290506002816040015160028111156112dc576112dc61162f565b146112f95760405162461bcd60e51b815260040161041f90611843565b805134101561131a5760405162461bcd60e51b815260040161041f90611897565b608081015160608201516040516331a9108f60e11b815260048101919091526001600160a01b03821690636352211e90602401602060405180830381865afa15801561136a573d6000803e3d6000fd5b505050506040513d601f19601f8201168201806040525081019061138e91906117f7565b82516040516001600160a01b03929092169181156108fc0291906000818181858888f193505050501580156113c7573d6000803e3d6000fd5b5060608201516040516331a9108f60e11b815260048101919091526001600160a01b038216906323b872dd908290636352211e90602401602060405180830381865afa15801561141b573d6000803e3d6000fd5b505050506040513d601f19601f8201168201806040525081019061143f91906117f7565b3385606001516040518463ffffffff1660e01b815260040161146393929190611905565b600060405180830381600087803b15801561147d57600080fd5b505af1158015611491573d6000803e3d6000fd5b50505060008481526002602081905260409091200180546001925060ff191682800217905550604080518481523360208201527f3584fda8572abb1bc14ec759c1e4bc875c59b0a23249a792b49ccf577c6711459101611184565b6040518060c001604052806000815260200160008152602001600060028111156115185761151861162f565b81526020016000815260200160006001600160a01b03168152602001600081525090565b6040518060c001604052806000815260200160008152602001600060028111156115685761156861162f565b81526000602082018190526040820181905260609091015290565b6001600160a01b038116811461159857600080fd5b50565b6000806000606084860312156115b057600080fd5b83356115bb81611583565b95602085013595506040909401359392505050565b6000602082840312156115e257600080fd5b5035919050565b6000602082840312156115fb57600080fd5b813561160681611583565b9392505050565b6000806040838503121561162057600080fd5b50508035926020909101359150565b634e487b7160e01b600052602160045260246000fd5b6003811061166357634e487b7160e01b600052602160045260246000fd5b9052565b602080825282518282018190526000919060409081850190868401855b828110156116e4578151805185528681015187860152858101516116aa87870182611645565b50606081810151908601526080808201516001600160a01b03169086015260a0908101519085015260c09093019290850190600101611684565b5091979650505050505050565b8681526020810186905260c0810161170c6040830187611645565b60608201949094526001600160a01b0392909216608083015260a0909101529392505050565b8681526020810186905260c0810161174d6040830187611645565b60608201949094526001600160a01b039283166080820152911660a0909101529392505050565b602080825282518282018190526000919060409081850190868401855b828110156116e4578151805185528681015187860152858101516117b787870182611645565b50606081810151908601526080808201516001600160a01b039081169187019190915260a091820151169085015260c09093019290850190600101611791565b60006020828403121561180957600080fd5b815161160681611583565b634e487b7160e01b600052601160045260246000fd5b60006001820161183c5761183c611814565b5060010190565b6020808252600f908201526e4e6f207375636820696e2073616c6560881b604082015260600190565b6020808252601190820152702cb7ba9030b932903737ba1037bbb732b960791b604082015260600190565b6020808252600f908201526e5768657265206973206d6f6e65793f60881b604082015260600190565b818103818111156118d3576118d3611814565b92915050565b634e487b7160e01b600052604160045260246000fd5b634e487b7160e01b600052603260045260246000fd5b6001600160a01b039384168152919092166020820152604081019190915260600190565b808201808211156118d3576118d361181456fea2646970667358221220e4e5ca744e2f2f73da808ed408bb94f71656ba8f96c8e69d02d190068370589b64736f6c63430008180033",
  "linkReferences": {},
  "deployedLinkReferences": {}
}