{
  "_format": "hh-sol-artifact-1",
  "contractName": "Market",
  "sourceName": "contracts/MarketPlace.sol",
  "abi": [
    {
      "inputs": [],
      "stateMutability": "nonpayable",
      "type": "constructor"
    },
    {
      "anonymous": false,
      "inputs": [
        {
          "indexed": false,
          "internalType": "uint256",
          "name": "_orderId",
          "type": "uint256"
        }
      ],
      "name": "BuyOrderFulfill",
      "type": "event"
    },
    {
      "anonymous": false,
      "inputs": [
        {
          "indexed": false,
          "internalType": "uint256",
          "name": "_orderId",
          "type": "uint256"
        }
      ],
      "name": "CancelSell",
      "type": "event"
    },
    {
      "anonymous": false,
      "inputs": [
        {
          "indexed": false,
          "internalType": "uint256",
          "name": "_orderId",
          "type": "uint256"
        },
        {
          "indexed": false,
          "internalType": "uint256",
          "name": "_desiredPrice",
          "type": "uint256"
        },
        {
          "indexed": false,
          "internalType": "address",
          "name": "who",
          "type": "address"
        }
      ],
      "name": "CreateBuyOrder",
      "type": "event"
    },
    {
      "anonymous": false,
      "inputs": [
        {
          "indexed": false,
          "internalType": "address",
          "name": "_address",
          "type": "address"
        },
        {
          "indexed": false,
          "internalType": "uint256",
          "name": "_tokenId",
          "type": "uint256"
        },
        {
          "indexed": false,
          "internalType": "uint256",
          "name": "_desiredPrice",
          "type": "uint256"
        },
        {
          "indexed": false,
          "internalType": "address",
          "name": "_who",
          "type": "address"
        }
      ],
      "name": "CreateSellOrder",
      "type": "event"
    },
    {
      "anonymous": false,
      "inputs": [
        {
          "indexed": false,
          "internalType": "uint256",
          "name": "_orderId",
          "type": "uint256"
        },
        {
          "indexed": false,
          "internalType": "address",
          "name": "_who",
          "type": "address"
        }
      ],
      "name": "DirectBuy",
      "type": "event"
    },
    {
      "inputs": [
        {
          "internalType": "address",
          "name": "_address",
          "type": "address"
        }
      ],
      "name": "addToBlackList",
      "outputs": [],
      "stateMutability": "nonpayable",
      "type": "function"
    },
    {
      "inputs": [
        {
          "internalType": "uint256",
          "name": "_orderId",
          "type": "uint256"
        }
      ],
      "name": "buy",
      "outputs": [],
      "stateMutability": "payable",
      "type": "function"
    },
    {
      "inputs": [
        {
          "internalType": "uint256",
          "name": "orderId",
          "type": "uint256"
        }
      ],
      "name": "buyOrders",
      "outputs": [
        {
          "internalType": "uint256",
          "name": "desiredPrice",
          "type": "uint256"
        },
        {
          "internalType": "uint256",
          "name": "orderId",
          "type": "uint256"
        },
        {
          "internalType": "enum Market.Status",
          "name": "status",
          "type": "uint8"
        },
        {
          "internalType": "uint256",
          "name": "tokenId",
          "type": "uint256"
        },
        {
          "internalType": "address",
          "name": "orderOwner",
          "type": "address"
        },
        {
          "internalType": "uint256",
          "name": "sellOrderId",
          "type": "uint256"
        }
      ],
      "stateMutability": "view",
      "type": "function"
    },
    {
      "inputs": [
        {
          "internalType": "uint256",
          "name": "_orderId",
          "type": "uint256"
        }
      ],
      "name": "cancelSell",
      "outputs": [],
      "stateMutability": "nonpayable",
      "type": "function"
    },
    {
      "inputs": [
        {
          "internalType": "address",
          "name": "_address",
          "type": "address"
        }
      ],
      "name": "checkNFT",
      "outputs": [
        {
          "internalType": "bool",
          "name": "isAllowed",
          "type": "bool"
        }
      ],
      "stateMutability": "view",
      "type": "function"
    },
    {
      "inputs": [
        {
          "internalType": "uint256",
          "name": "_orderId",
          "type": "uint256"
        },
        {
          "internalType": "uint256",
          "name": "_desiredPrice",
          "type": "uint256"
        }
      ],
      "name": "createBuyOrder",
      "outputs": [],
      "stateMutability": "payable",
      "type": "function"
    },
    {
      "inputs": [
        {
          "internalType": "address",
          "name": "_address",
          "type": "address"
        },
        {
          "internalType": "uint256",
          "name": "_tokenId",
          "type": "uint256"
        },
        {
          "internalType": "uint256",
          "name": "_desiredPrice",
          "type": "uint256"
        }
      ],
      "name": "createSellOrder",
      "outputs": [],
      "stateMutability": "nonpayable",
      "type": "function"
    },
    {
      "inputs": [
        {
          "internalType": "uint256",
          "name": "_orderId",
          "type": "uint256"
        }
      ],
      "name": "fulfill",
      "outputs": [],
      "stateMutability": "nonpayable",
      "type": "function"
    },
    {
      "inputs": [],
      "name": "getAllBuyOrders",
      "outputs": [
        {
          "components": [
            {
              "internalType": "uint256",
              "name": "desiredPrice",
              "type": "uint256"
            },
            {
              "internalType": "uint256",
              "name": "orderId",
              "type": "uint256"
            },
            {
              "internalType": "enum Market.Status",
              "name": "status",
              "type": "uint8"
            },
            {
              "internalType": "uint256",
              "name": "tokenId",
              "type": "uint256"
            },
            {
              "internalType": "address",
              "name": "orderOwner",
              "type": "address"
            },
            {
              "internalType": "uint256",
              "name": "sellOrderId",
              "type": "uint256"
            }
          ],
          "internalType": "struct Market.BuyOrder[]",
          "name": "",
          "type": "tuple[]"
        }
      ],
      "stateMutability": "view",
      "type": "function"
    },
    {
      "inputs": [],
      "name": "getAllSellOrders",
      "outputs": [
        {
          "components": [
            {
              "internalType": "uint256",
              "name": "desiredPrice",
              "type": "uint256"
            },
            {
              "internalType": "uint256",
              "name": "orderId",
              "type": "uint256"
            },
            {
              "internalType": "enum Market.Status",
              "name": "status",
              "type": "uint8"
            },
            {
              "internalType": "uint256",
              "name": "tokenId",
              "type": "uint256"
            },
            {
              "internalType": "address",
              "name": "tokenAddress",
              "type": "address"
            },
            {
              "internalType": "address",
              "name": "orderOwner",
              "type": "address"
            }
          ],
          "internalType": "struct Market.Order[]",
          "name": "",
          "type": "tuple[]"
        }
      ],
      "stateMutability": "view",
      "type": "function"
    },
    {
      "inputs": [],
      "name": "nextBuyOrderId",
      "outputs": [
        {
          "internalType": "uint256",
          "name": "",
          "type": "uint256"
        }
      ],
      "stateMutability": "view",
      "type": "function"
    },
    {
      "inputs": [],
      "name": "nextOrderId",
      "outputs": [
        {
          "internalType": "uint256",
          "name": "",
          "type": "uint256"
        }
      ],
      "stateMutability": "view",
      "type": "function"
    },
    {
      "inputs": [
        {
          "internalType": "uint256",
          "name": "orderId",
          "type": "uint256"
        }
      ],
      "name": "sellOrders",
      "outputs": [
        {
          "internalType": "uint256",
          "name": "desiredPrice",
          "type": "uint256"
        },
        {
          "internalType": "uint256",
          "name": "orderId",
          "type": "uint256"
        },
        {
          "internalType": "enum Market.Status",
          "name": "status",
          "type": "uint8"
        },
        {
          "internalType": "uint256",
          "name": "tokenId",
          "type": "uint256"
        },
        {
          "internalType": "address",
          "name": "tokenAddress",
          "type": "address"
        },
        {
          "internalType": "address",
          "name": "orderOwner",
          "type": "address"
        }
      ],
      "stateMutability": "view",
      "type": "function"
    },
    {
      "stateMutability": "payable",
      "type": "receive"
    }
  ],
  "bytecode": "0x60806040526000600555600060065534801561001a57600080fd5b50600080546001600160a01b031916331790556117f38061003c6000396000f3fe6080604052600436106100b65760003560e01c8063417c73a71161006f578063417c73a7146101d45780634a8393f3146101f4578063730412e814610268578063753b88071461028a578063ba8c2ace146102aa578063c9b57f4f146102da578063d96a094a146102f057600080fd5b806304e9e17a146100c257806307c9cd45146100e45780632a58b330146101045780632cb4f4b71461012d5780632e98613e1461014057806335cea2881461016257600080fd5b366100bd57005b600080fd5b3480156100ce57600080fd5b506100e26100dd366004611450565b610303565b005b3480156100f057600080fd5b506100e26100ff366004611485565b610603565b34801561011057600080fd5b5061011a60055481565b6040519081526020015b60405180910390f35b6100e261013b36600461149e565b6106bf565b34801561014c57600080fd5b506101556108f9565b60405161012491906114f8565b34801561016e57600080fd5b506101c261017d366004611485565b60046020819052600091825260409091208054600182015460028301546003840154948401546005909401549294919360ff909116926001600160a01b039091169086565b60405161012496959493929190611582565b3480156101e057600080fd5b506100e26101ef3660046115c3565b610a26565b34801561020057600080fd5b5061025661020f366004611485565b600260208190526000918252604090912080546001820154928201546003830154600484015460059094015492949360ff9092169290916001600160a01b03908116911686565b604051610124969594939291906115e7565b34801561027457600080fd5b5061027d610a91565b6040516101249190611629565b34801561029657600080fd5b506100e26102a5366004611485565b610bb9565b3480156102b657600080fd5b506102ca6102c53660046115c3565b610d76565b6040519015158152602001610124565b3480156102e657600080fd5b5061011a60065481565b6100e26102fe366004611485565b610d95565b61030c83610d76565b61034f5760405162461bcd60e51b815260206004820152600f60248201526e139195081b9bdd08185b1b1bddd959608a1b60448201526064015b60405180910390fd5b6040516331a9108f60e11b815260048101839052839033906001600160a01b03831690636352211e90602401602060405180830381865afa158015610398573d6000803e3d6000fd5b505050506040513d601f19601f820116820180604052508101906103bc91906116ac565b6001600160a01b03161461040b5760405162461bcd60e51b8152602060048201526016602482015275165bdd48191bdb89dd081bdddb881d1a1a5cc813919560521b6044820152606401610346565b60405163020604bf60e21b81526004810184905230906001600160a01b0383169063081812fc90602401602060405180830381865afa158015610452573d6000803e3d6000fd5b505050506040513d601f19601f8201168201806040525081019061047691906116ac565b6001600160a01b0316146104bb5760405162461bcd60e51b815260206004820152600c60248201526b139bdd08185c1c1c9bdd995960a21b6044820152606401610346565b6040805160c081018252838152600554602082015290810160028152602001848152602001856001600160a01b03168152602001336001600160a01b0316815250600260006005548152602001908152602001600020600082015181600001556020820151816001015560408201518160020160006101000a81548160ff0219169083600281111561054f5761054f6114c0565b02179055506060820151600382015560808201516004820180546001600160a01b03199081166001600160a01b039384161790915560a0909301516005928301805490941691161790915580549060006105a8836116c9565b9091555050604080516001600160a01b0386168152602081018590529081018390523360608201527f68ec46af4282cf919e4ed7e43d343802a7ad935b364112cab03bb7f628cf511f9060800160405180910390a150505050565b600081815260026020819052604090912081015460ff168181111561062a5761062a6114c0565b146106475760405162461bcd60e51b8152600401610346906116f0565b6000818152600260205260409020600501546001600160a01b031633146106805760405162461bcd60e51b815260040161034690611719565b61068981610ffb565b6040518181527f87df48382ad11b84926580278f9ad32c3c1391b3abe3e28308695fab47e5c0fd9060200160405180910390a150565b600082815260026020819052604090912081015460ff16818111156106e6576106e66114c0565b146107035760405162461bcd60e51b8152600401610346906116f0565b803410156107235760405162461bcd60e51b815260040161034690611744565b6040805160c08101825282815260065460208083018281526002848601818152600089815282855287812060030154606088015233608088015260a087018a905294855260049093529490922083518155915160018084019190915590518285018054949593949193909260ff19909216919084908111156107a7576107a76114c0565b021790555060608201516003828101919091556080830151600480840180546001600160a01b0319166001600160a01b039093169290921790915560a0909301516005909201919091556000848152602091825260408082206006805484529484529082208154600181810184559284529390922082549390940290930191825580830154828401556002808201548184018054939560ff90921693909260ff199091169190849081111561085e5761085e6114c0565b02179055506003828101549082015560048083015490820180546001600160a01b0319166001600160a01b03909216919091179055600591820154910155600680549060006108ac836116c9565b9091555050604080518381526020810183905233918101919091527fe4041f00f364e2a62b16c19fe28f151d0e2bb65b1740058910fad87ea6b4bf3e906060015b60405180910390a15050565b6060600060065467ffffffffffffffff8111156109185761091861176d565b60405190808252806020026020018201604052801561095157816020015b61093e6113a1565b8152602001906001900390816109365790505b5090506000805b600654811015610a1e57600081815260046020908152604091829020825160c08101845281548152600182015492810192909252600280820154929391929184019160ff16908111156109ad576109ad6114c0565b60028111156109be576109be6114c0565b81526003820154602082015260048201546001600160a01b0316604082015260059091015460609091015283518490849081106109fd576109fd611783565b60200260200101819052508180610a13906116c9565b925050600101610958565b509092915050565b6000546001600160a01b03163314610a6a5760405162461bcd60e51b81526020600482015260076024820152664e6f742068696d60c81b6044820152606401610346565b6001600160a01b03166000908152600160208190526040909120805460ff19169091179055565b6060600060055467ffffffffffffffff811115610ab057610ab061176d565b604051908082528060200260200182016040528015610ae957816020015b610ad66113f1565b815260200190600190039081610ace5790505b5090506000805b600554811015610a1e57600081815260026020818152604092839020835160c0810185528154815260018201549281019290925280830154919390929084019160ff1690811115610b4357610b436114c0565b6002811115610b5457610b546114c0565b81526003820154602082015260048201546001600160a01b0390811660408301526005909201549091166060909101528351849084908110610b9857610b98611783565b60200260200101819052508180610bae906116c9565b925050600101610af0565b600081815260046020526040902060029081015460ff1681811115610be057610be06114c0565b14610c215760405162461bcd60e51b815260206004820152601160248201527027379039bab1b410313abc9037b93232b960791b6044820152606401610346565b600081815260046020818152604080842060059081015485526002909252909220908101549101546001600160a01b0391821691163314610c745760405162461bcd60e51b815260040161034690611719565b600082815260046020526040808220549051339282156108fc02929190818181858888f19350505050158015610cae573d6000803e3d6000fd5b506000828152600460208190526040918290208082015460039091015492516323b872dd60e01b81526001600160a01b03808616946323b872dd94610cf894339493169201611799565b600060405180830381600087803b158015610d1257600080fd5b505af1158015610d26573d6000803e3d6000fd5b505050600083815260046020526040902060050154610d46915083611181565b6040518281527fb2f92ca95462cc0fb22134fffdd48c9d286835c91d5e4276dd7714a7e1296621906020016108ed565b6001600160a01b031660009081526001602052604090205460ff161590565b600081815260026020819052604090912081015460ff1681811115610dbc57610dbc6114c0565b14610dd95760405162461bcd60e51b8152600401610346906116f0565b600081815260026020526040902054341015610e075760405162461bcd60e51b815260040161034690611744565b6000818152600260205260409081902060048082015460039092015492516331a9108f60e11b8152908101929092526001600160a01b0316908190636352211e90602401602060405180830381865afa158015610e68573d6000803e3d6000fd5b505050506040513d601f19601f82011682018060405250810190610e8c91906116ac565b6000838152600260205260408082205490516001600160a01b03939093169281156108fc0292818181858888f19350505050158015610ecf573d6000803e3d6000fd5b50600082815260026020526040908190206003015490516331a9108f60e11b815260048101919091526001600160a01b038216906323b872dd908290636352211e90602401602060405180830381865afa158015610f31573d6000803e3d6000fd5b505050506040513d601f19601f82011682018060405250810190610f5591906116ac565b600085815260026020526040908190206003015490516001600160e01b031960e085901b168152610f8b92913391600401611799565b600060405180830381600087803b158015610fa557600080fd5b505af1158015610fb9573d6000803e3d6000fd5b50505050610fc682610ffb565b604080518381523360208201527f3584fda8572abb1bc14ec759c1e4bc875c59b0a23249a792b49ccf577c67114591016108ed565b60008181526003602052604081205490036110375760008181526002602081905260409091200180546001919060ff191682805b021790555050565b60005b60008281526003602052604090205481101561115d57600082815260036020526040902080548290811061107057611070611783565b906000526020600020906006020160040160009054906101000a90046001600160a01b03166001600160a01b03166108fc6003600085815260200190815260200160002083815481106110c5576110c5611783565b600091825260208220600690910201546040518115909302929091818181858888f193505050501580156110fd573d6000803e3d6000fd5b50600082815260036020526040812080548390811061111e5761111e611783565b906000526020600020906006020160020160006101000a81548160ff02191690836002811115611150576111506114c0565b021790555060010161103a565b5060008181526002602081905260409091200180546001919060ff1916828061102f565b60008281526003602052604081205490036111be5760008281526002602081905260409091200180546001919060ff191682805b02179055505050565b60005b60008381526003602052604090205481101561137d5760008381526003602052604090208054829081106111f7576111f7611783565b906000526020600020906006020160010154820361126f5760008381526003602052604090208054600191908390811061123357611233611783565b906000526020600020906006020160020160006101000a81548160ff02191690836002811115611265576112656114c0565b0217905550611375565b600083815260036020526040902080548290811061128f5761128f611783565b906000526020600020906006020160040160009054906101000a90046001600160a01b03166001600160a01b03166108fc6003600086815260200190815260200160002083815481106112e4576112e4611783565b600091825260208220600690910201546040518115909302929091818181858888f1935050505015801561131c573d6000803e3d6000fd5b50600083815260036020526040812080548390811061133d5761133d611783565b906000526020600020906006020160020160006101000a81548160ff0219169083600281111561136f5761136f6114c0565b02179055505b6001016111c1565b5060008281526002602081905260409091200180546001919060ff191682806111b5565b6040518060c001604052806000815260200160008152602001600060028111156113cd576113cd6114c0565b81526020016000815260200160006001600160a01b03168152602001600081525090565b6040518060c0016040528060008152602001600081526020016000600281111561141d5761141d6114c0565b81526000602082018190526040820181905260609091015290565b6001600160a01b038116811461144d57600080fd5b50565b60008060006060848603121561146557600080fd5b833561147081611438565b95602085013595506040909401359392505050565b60006020828403121561149757600080fd5b5035919050565b600080604083850312156114b157600080fd5b50508035926020909101359150565b634e487b7160e01b600052602160045260246000fd5b600381106114f457634e487b7160e01b600052602160045260246000fd5b9052565b602080825282518282018190526000919060409081850190868401855b828110156115755781518051855286810151878601528581015161153b878701826114d6565b50606081810151908601526080808201516001600160a01b03169086015260a0908101519085015260c09093019290850190600101611515565b5091979650505050505050565b8681526020810186905260c0810161159d60408301876114d6565b60608201949094526001600160a01b0392909216608083015260a0909101529392505050565b6000602082840312156115d557600080fd5b81356115e081611438565b9392505050565b8681526020810186905260c0810161160260408301876114d6565b60608201949094526001600160a01b039283166080820152911660a0909101529392505050565b602080825282518282018190526000919060409081850190868401855b828110156115755781518051855286810151878601528581015161166c878701826114d6565b50606081810151908601526080808201516001600160a01b039081169187019190915260a091820151169085015260c09093019290850190600101611646565b6000602082840312156116be57600080fd5b81516115e081611438565b6000600182016116e957634e487b7160e01b600052601160045260246000fd5b5060010190565b6020808252600f908201526e4e6f207375636820696e2073616c6560881b604082015260600190565b6020808252601190820152702cb7ba9030b932903737ba1037bbb732b960791b604082015260600190565b6020808252600f908201526e5768657265206973206d6f6e65793f60881b604082015260600190565b634e487b7160e01b600052604160045260246000fd5b634e487b7160e01b600052603260045260246000fd5b6001600160a01b03938416815291909216602082015260408101919091526060019056fea2646970667358221220ac590c9421007d33bc55f812f4263b9198e4abb0c82f3f37e50dc459310f93cd64736f6c63430008180033",
  "linkReferences": {},
  "deployedLinkReferences": {}
}